{
  "contractName": "Bidding",
  "abi": [
    {
      "inputs": [
        {
          "internalType": "address payable",
          "name": "_owner",
          "type": "address"
        }
      ],
      "stateMutability": "nonpayable",
      "type": "constructor"
    },
    {
      "inputs": [],
      "name": "highestbidder",
      "outputs": [
        {
          "internalType": "address",
          "name": "",
          "type": "address"
        }
      ],
      "stateMutability": "view",
      "type": "function",
      "constant": true
    },
    {
      "inputs": [],
      "name": "owner",
      "outputs": [
        {
          "internalType": "address payable",
          "name": "",
          "type": "address"
        }
      ],
      "stateMutability": "view",
      "type": "function",
      "constant": true
    },
    {
      "inputs": [],
      "name": "getHighestBid",
      "outputs": [
        {
          "internalType": "uint256",
          "name": "",
          "type": "uint256"
        }
      ],
      "stateMutability": "view",
      "type": "function",
      "constant": true
    },
    {
      "inputs": [],
      "name": "bid",
      "outputs": [],
      "stateMutability": "payable",
      "type": "function",
      "payable": true
    },
    {
      "inputs": [],
      "name": "endbid",
      "outputs": [],
      "stateMutability": "payable",
      "type": "function",
      "payable": true
    },
    {
      "inputs": [],
      "name": "setcount",
      "outputs": [],
      "stateMutability": "nonpayable",
      "type": "function"
    },
    {
      "inputs": [],
      "name": "getcount",
      "outputs": [
        {
          "internalType": "uint256",
          "name": "",
          "type": "uint256"
        }
      ],
      "stateMutability": "view",
      "type": "function",
      "constant": true
    }
  ],
  "bytecode": "0x6080604052600060035534801561001557600080fd5b506040516108c53803806108c5833981810160405281019061003791906100e0565b806000806101000a81548173ffffffffffffffffffffffffffffffffffffffff021916908373ffffffffffffffffffffffffffffffffffffffff1602179055505061010d565b600080fd5b600073ffffffffffffffffffffffffffffffffffffffff82169050919050565b60006100ad82610082565b9050919050565b6100bd816100a2565b81146100c857600080fd5b50565b6000815190506100da816100b4565b92915050565b6000602082840312156100f6576100f561007d565b5b6000610104848285016100cb565b91505092915050565b6107a98061011c6000396000f3fe6080604052600436106100705760003560e01c80634979440a1161004e5780634979440a146100c1578063741a6844146100ec5780638da5cb5b146100f6578063dcbfb0ff1461012157610070565b8063146af82b146100755780631998aeef146100a05780631c7eca54146100aa575b600080fd5b34801561008157600080fd5b5061008a61014c565b60405161009791906104b3565b60405180910390f35b6100a8610156565b005b3480156100b657600080fd5b506100bf610343565b005b3480156100cd57600080fd5b506100d661034d565b6040516100e391906104b3565b60405180910390f35b6100f4610357565b005b34801561010257600080fd5b5061010b610450565b604051610118919061050f565b60405180910390f35b34801561012d57600080fd5b50610136610474565b604051610143919061054b565b60405180910390f35b6000600254905090565b60008054906101000a900473ffffffffffffffffffffffffffffffffffffffff1673ffffffffffffffffffffffffffffffffffffffff163373ffffffffffffffffffffffffffffffffffffffff1614156101e5576040517f08c379a00000000000000000000000000000000000000000000000000000000081526004016101dc906105c3565b60405180910390fd5b343373ffffffffffffffffffffffffffffffffffffffff1631101561023f576040517f08c379a000000000000000000000000000000000000000000000000000000000815260040161023690610655565b60405180910390fd5b6003543411610283576040517f08c379a000000000000000000000000000000000000000000000000000000000815260040161027a906106e7565b60405180910390fd5b6000600354146102f957600160009054906101000a900473ffffffffffffffffffffffffffffffffffffffff1673ffffffffffffffffffffffffffffffffffffffff166108fc6003549081150290604051600060405180830381858888f193505050501580156102f7573d6000803e3d6000fd5b505b33600160006101000a81548173ffffffffffffffffffffffffffffffffffffffff021916908373ffffffffffffffffffffffffffffffffffffffff16021790555034600381905550565b6001600281905550565b6000600354905090565b60008054906101000a900473ffffffffffffffffffffffffffffffffffffffff1673ffffffffffffffffffffffffffffffffffffffff163373ffffffffffffffffffffffffffffffffffffffff16146103e5576040517f08c379a00000000000000000000000000000000000000000000000000000000081526004016103dc90610753565b60405180910390fd5b60008054906101000a900473ffffffffffffffffffffffffffffffffffffffff1673ffffffffffffffffffffffffffffffffffffffff166108fc6003549081150290604051600060405180830381858888f1935050505015801561044d573d6000803e3d6000fd5b50565b60008054906101000a900473ffffffffffffffffffffffffffffffffffffffff1681565b600160009054906101000a900473ffffffffffffffffffffffffffffffffffffffff1681565b6000819050919050565b6104ad8161049a565b82525050565b60006020820190506104c860008301846104a4565b92915050565b600073ffffffffffffffffffffffffffffffffffffffff82169050919050565b60006104f9826104ce565b9050919050565b610509816104ee565b82525050565b60006020820190506105246000830184610500565b92915050565b6000610535826104ce565b9050919050565b6105458161052a565b82525050565b6000602082019050610560600083018461053c565b92915050565b600082825260208201905092915050565b7f6e6f7420617661696c61626c6520666f72206f776e6572200000000000000000600082015250565b60006105ad601883610566565b91506105b882610577565b602082019050919050565b600060208201905081810360008301526105dc816105a0565b9050919050565b7f496e73756666696369656e742062616c616e636520696e20796f75722061636360008201527f6f756e7400000000000000000000000000000000000000000000000000000000602082015250565b600061063f602483610566565b915061064a826105e3565b604082019050919050565b6000602082019050818103600083015261066e81610632565b9050919050565b7f546865726520697320616c726561647920686967686572206f7220657175616c60008201527f2062696400000000000000000000000000000000000000000000000000000000602082015250565b60006106d1602483610566565b91506106dc82610675565b604082019050919050565b60006020820190508181036000830152610700816106c4565b9050919050565b7f6f6e6c7920617661696c61626c6520666f72206f776e65722000000000000000600082015250565b600061073d601983610566565b915061074882610707565b602082019050919050565b6000602082019050818103600083015261076c81610730565b905091905056fea264697066735822122036284fef76d37a9a5cbe16a36b9af605e0f95530d2abbdaf41ca596b9692cb2164736f6c634300080a0033",
  "immutableReferences": {},
  "source": "// SPDX-License-Identifier: MIT\r\npragma solidity >=0.4.22 <0.9.0;\r\n\r\ncontract Bidding{\r\n    \r\n    \r\n    address payable public owner;\r\n    address public highestbidder;\r\n    uint256 count;\r\n\r\n    uint256 highestbid=0;\r\n\r\n    constructor(address payable _owner){\r\n        owner = _owner;\r\n    }\r\n\r\n    function getHighestBid() public view returns (uint256) {\r\n        return highestbid;\r\n    }\r\n\r\n    function bid() public payable \r\n    {\r\n        if(msg.sender == owner)\r\n        {\r\n            revert(\"not available for owner \");\r\n        }\r\n\r\n        if(msg.sender.balance < msg.value)\r\n        {\r\n            revert(\"Insufficient balance in your account\");\r\n        }\r\n\r\n        if(msg.value <= highestbid)\r\n        {\r\n            revert(\"There is already higher or equal bid\");\r\n        }\r\n        \r\n        if(highestbid!=0)\r\n        payable(highestbidder).transfer(highestbid);\r\n\r\n        highestbidder=msg.sender;\r\n        highestbid=msg.value;\r\n    }\r\n\r\n    function endbid() public payable{\r\n        if(msg.sender != owner)\r\n        {\r\n            revert(\"only available for owner \");\r\n        }\r\n\r\n        owner.transfer(highestbid);\r\n    }\r\n\r\n    function setcount() public\r\n    {\r\n        count=1;\r\n    }\r\n\r\n    function getcount() public view returns (uint256)\r\n    {\r\n        return count;\r\n    }\r\n\r\n\r\n\r\n}",
  "sourcePath": "D:\\Bidding\\contracts\\Bidding.sol",
  "compiler": {
    "name": "solc",
    "version": "0.8.10+commit.fc410830.Emscripten.clang"
  },
  "schemaVersion": "3.4.3",
  "updatedAt": "2022-04-10T11:49:30.404Z",
  "networkType": "ethereum",
  "devdoc": {
    "kind": "dev",
    "methods": {},
    "version": 1
  },
  "userdoc": {
    "kind": "user",
    "methods": {},
    "version": 1
  }
}