{
  "contractName": "Bidding",
  "abi": [
    {
      "inputs": [
        {
          "internalType": "address payable",
          "name": "_owner",
          "type": "address"
        }
      ],
      "stateMutability": "nonpayable",
      "type": "constructor"
    },
    {
      "inputs": [],
      "name": "highestbidder",
      "outputs": [
        {
          "internalType": "address",
          "name": "",
          "type": "address"
        }
      ],
      "stateMutability": "view",
      "type": "function",
      "constant": true
    },
    {
      "inputs": [],
      "name": "owner",
      "outputs": [
        {
          "internalType": "address payable",
          "name": "",
          "type": "address"
        }
      ],
      "stateMutability": "view",
      "type": "function",
      "constant": true
    },
    {
      "inputs": [],
      "name": "bid",
      "outputs": [],
      "stateMutability": "payable",
      "type": "function",
      "payable": true
    },
    {
      "inputs": [],
      "name": "endbid",
      "outputs": [],
      "stateMutability": "nonpayable",
      "type": "function"
    }
  ],
  "bytecode": "0x608060405234801561001057600080fd5b50604051610771380380610771833981810160405281019061003291906100db565b806000806101000a81548173ffffffffffffffffffffffffffffffffffffffff021916908373ffffffffffffffffffffffffffffffffffffffff16021790555050610108565b600080fd5b600073ffffffffffffffffffffffffffffffffffffffff82169050919050565b60006100a88261007d565b9050919050565b6100b88161009d565b81146100c357600080fd5b50565b6000815190506100d5816100af565b92915050565b6000602082840312156100f1576100f0610078565b5b60006100ff848285016100c6565b91505092915050565b61065a806101176000396000f3fe60806040526004361061003f5760003560e01c80631998aeef14610044578063741a68441461004e5780638da5cb5b14610065578063dcbfb0ff14610090575b600080fd5b61004c6100bb565b005b34801561005a57600080fd5b506100636102a8565b005b34801561007157600080fd5b5061007a6103a1565b604051610087919061042c565b60405180910390f35b34801561009c57600080fd5b506100a56103c5565b6040516100b29190610468565b60405180910390f35b60008054906101000a900473ffffffffffffffffffffffffffffffffffffffff1673ffffffffffffffffffffffffffffffffffffffff163373ffffffffffffffffffffffffffffffffffffffff16141561014a576040517f08c379a0000000000000000000000000000000000000000000000000000000008152600401610141906104e0565b60405180910390fd5b600254341161018e576040517f08c379a000000000000000000000000000000000000000000000000000000000815260040161018590610572565b60405180910390fd5b343373ffffffffffffffffffffffffffffffffffffffff163110156101e8576040517f08c379a00000000000000000000000000000000000000000000000000000000081526004016101df90610604565b60405180910390fd5b60006002541461025e57600160009054906101000a900473ffffffffffffffffffffffffffffffffffffffff1673ffffffffffffffffffffffffffffffffffffffff166108fc6002549081150290604051600060405180830381858888f1935050505015801561025c573d6000803e3d6000fd5b505b33600160006101000a81548173ffffffffffffffffffffffffffffffffffffffff021916908373ffffffffffffffffffffffffffffffffffffffff16021790555034600281905550565b60008054906101000a900473ffffffffffffffffffffffffffffffffffffffff1673ffffffffffffffffffffffffffffffffffffffff163373ffffffffffffffffffffffffffffffffffffffff1614610336576040517f08c379a000000000000000000000000000000000000000000000000000000000815260040161032d906104e0565b60405180910390fd5b60008054906101000a900473ffffffffffffffffffffffffffffffffffffffff1673ffffffffffffffffffffffffffffffffffffffff166108fc6002549081150290604051600060405180830381858888f1935050505015801561039e573d6000803e3d6000fd5b50565b60008054906101000a900473ffffffffffffffffffffffffffffffffffffffff1681565b600160009054906101000a900473ffffffffffffffffffffffffffffffffffffffff1681565b600073ffffffffffffffffffffffffffffffffffffffff82169050919050565b6000610416826103eb565b9050919050565b6104268161040b565b82525050565b6000602082019050610441600083018461041d565b92915050565b6000610452826103eb565b9050919050565b61046281610447565b82525050565b600060208201905061047d6000830184610459565b92915050565b600082825260208201905092915050565b7f6f6e6c7920617661696c61626c6520666f72206f776e65722000000000000000600082015250565b60006104ca601983610483565b91506104d582610494565b602082019050919050565b600060208201905081810360008301526104f9816104bd565b9050919050565b7f546865726520697320616c726561647920686967686572206f7220657175616c60008201527f2062696400000000000000000000000000000000000000000000000000000000602082015250565b600061055c602483610483565b915061056782610500565b604082019050919050565b6000602082019050818103600083015261058b8161054f565b9050919050565b7f496e73756666696369656e742062616c616e636520696e20796f75722061636360008201527f6f756e7400000000000000000000000000000000000000000000000000000000602082015250565b60006105ee602483610483565b91506105f982610592565b604082019050919050565b6000602082019050818103600083015261061d816105e1565b905091905056fea26469706673582212206806ec1a592378751ee773afa2634b4ec64da2dc6da60a2b48b3fbb16c8ca18b64736f6c634300080a0033",
  "immutableReferences": {},
  "source": "// SPDX-License-Identifier: MIT\r\npragma solidity >=0.4.22 <0.9.0;\r\n\r\ncontract Bidding{\r\n    \r\n    modifier isOwner\r\n    {\r\n        require(msg.sender == owner,\"only available for owner \");\r\n        _;\r\n    }\r\n    \r\n    modifier isNotOwner\r\n    {\r\n        require(msg.sender != owner,\"only available for owner \");\r\n        _;\r\n    }\r\n    \r\n    address payable public owner;\r\n    address public highestbidder;\r\n\r\n    uint256 highestbid;\r\n\r\n    constructor(address payable _owner){\r\n        owner = payable(_owner);\r\n    }\r\n\r\n    function bid() public payable isNotOwner\r\n    {\r\n        if(msg.value <= highestbid)\r\n        {\r\n            revert(\"There is already higher or equal bid\");\r\n        }\r\n        else if(msg.sender.balance < msg.value)\r\n        {\r\n            revert(\"Insufficient balance in your account\");\r\n        }\r\n        if(highestbid!=0)\r\n        payable(highestbidder).transfer(highestbid);\r\n\r\n        highestbidder=msg.sender;\r\n        highestbid=msg.value;\r\n    }\r\n\r\n    function endbid() public isOwner{\r\n        owner.transfer(highestbid);\r\n    }\r\n\r\n}",
  "sourcePath": "D:\\Bidding\\contracts\\Bidding.sol",
  "compiler": {
    "name": "solc",
    "version": "0.8.10+commit.fc410830.Emscripten.clang"
  },
  "schemaVersion": "3.4.3",
  "updatedAt": "2021-12-03T10:26:24.737Z",
  "networkType": "ethereum",
  "devdoc": {
    "kind": "dev",
    "methods": {},
    "version": 1
  },
  "userdoc": {
    "kind": "user",
    "methods": {},
    "version": 1
  }
}